:020000020000FC
:100000000FEF0DBF18E00EBF0FE004B91FE017B9E6
:100010000CE30BB9509809B102FF0E94190003FFCD
:100020000E94250004FF0E94320005FF0E943E004E
:10003000F2CF18EC1A95F1F709B102FFFACF0E943E
:100040002200089518EC239525B918EC1A95F1F7BC
:1000500009B103FFFACF0E942E00089514E63A95E5
:1000600035B9089518EC1A95F1F709B104FFFACFE4
:100070000E943B00089518EC439548B918EC1A9576
:10008000F1F709B105FFE1CF0E942E00089514E6B3
:060090005A9558B90895CD
:00000001FF
